{
  "_format": "hh-sol-artifact-1",
  "contractName": "RentalContract",
  "sourceName": "contracts/RentalContract.sol",
  "abi": [
    {
      "inputs": [
        {
          "internalType": "address",
          "name": "_tenant",
          "type": "address"
        },
        {
          "internalType": "uint256",
          "name": "_rentAmount",
          "type": "uint256"
        },
        {
          "internalType": "uint256",
          "name": "_durationDays",
          "type": "uint256"
        }
      ],
      "stateMutability": "nonpayable",
      "type": "constructor"
    },
    {
      "inputs": [],
      "name": "AlreadySigned",
      "type": "error"
    },
    {
      "inputs": [],
      "name": "InvalidState",
      "type": "error"
    },
    {
      "inputs": [],
      "name": "NotAuthorized",
      "type": "error"
    },
    {
      "anonymous": false,
      "inputs": [
        {
          "indexed": false,
          "internalType": "address",
          "name": "by",
          "type": "address"
        }
      ],
      "name": "Cancelled",
      "type": "event"
    },
    {
      "anonymous": false,
      "inputs": [
        {
          "indexed": false,
          "internalType": "address",
          "name": "landlord",
          "type": "address"
        },
        {
          "indexed": false,
          "internalType": "address",
          "name": "tenant",
          "type": "address"
        },
        {
          "indexed": false,
          "internalType": "uint256",
          "name": "rentAmount",
          "type": "uint256"
        },
        {
          "indexed": false,
          "internalType": "uint256",
          "name": "startDate",
          "type": "uint256"
        },
        {
          "indexed": false,
          "internalType": "uint256",
          "name": "endDate",
          "type": "uint256"
        }
      ],
      "name": "ContractCreated",
      "type": "event"
    },
    {
      "anonymous": false,
      "inputs": [],
      "name": "Locked",
      "type": "event"
    },
    {
      "anonymous": false,
      "inputs": [
        {
          "indexed": false,
          "internalType": "address",
          "name": "from",
          "type": "address"
        },
        {
          "indexed": false,
          "internalType": "uint256",
          "name": "amount",
          "type": "uint256"
        },
        {
          "indexed": false,
          "internalType": "uint256",
          "name": "timestamp",
          "type": "uint256"
        }
      ],
      "name": "RentPaid",
      "type": "event"
    },
    {
      "anonymous": false,
      "inputs": [
        {
          "indexed": false,
          "internalType": "uint256",
          "name": "newRent",
          "type": "uint256"
        }
      ],
      "name": "RentUpdated",
      "type": "event"
    },
    {
      "anonymous": false,
      "inputs": [
        {
          "indexed": false,
          "internalType": "address",
          "name": "signer",
          "type": "address"
        }
      ],
      "name": "Signed",
      "type": "event"
    },
    {
      "anonymous": false,
      "inputs": [
        {
          "indexed": false,
          "internalType": "address",
          "name": "by",
          "type": "address"
        }
      ],
      "name": "Terminated",
      "type": "event"
    },
    {
      "inputs": [],
      "name": "cancelContract",
      "outputs": [],
      "stateMutability": "nonpayable",
      "type": "function"
    },
    {
      "inputs": [],
      "name": "contractStatus",
      "outputs": [
        {
          "internalType": "enum RentalContract.Status",
          "name": "",
          "type": "uint8"
        }
      ],
      "stateMutability": "view",
      "type": "function"
    },
    {
      "inputs": [],
      "name": "endDate",
      "outputs": [
        {
          "internalType": "uint256",
          "name": "",
          "type": "uint256"
        }
      ],
      "stateMutability": "view",
      "type": "function"
    },
    {
      "inputs": [],
      "name": "getContractInfo",
      "outputs": [
        {
          "internalType": "address",
          "name": "",
          "type": "address"
        },
        {
          "internalType": "address",
          "name": "",
          "type": "address"
        },
        {
          "internalType": "uint256",
          "name": "",
          "type": "uint256"
        },
        {
          "internalType": "uint256",
          "name": "",
          "type": "uint256"
        },
        {
          "internalType": "uint256",
          "name": "",
          "type": "uint256"
        },
        {
          "internalType": "bool",
          "name": "",
          "type": "bool"
        },
        {
          "internalType": "bool",
          "name": "",
          "type": "bool"
        },
        {
          "internalType": "bool",
          "name": "",
          "type": "bool"
        },
        {
          "internalType": "bool",
          "name": "",
          "type": "bool"
        },
        {
          "internalType": "enum RentalContract.Status",
          "name": "",
          "type": "uint8"
        }
      ],
      "stateMutability": "view",
      "type": "function"
    },
    {
      "inputs": [],
      "name": "getPayments",
      "outputs": [
        {
          "components": [
            {
              "internalType": "uint256",
              "name": "amount",
              "type": "uint256"
            },
            {
              "internalType": "uint256",
              "name": "timestamp",
              "type": "uint256"
            }
          ],
          "internalType": "struct RentalContract.Payment[]",
          "name": "",
          "type": "tuple[]"
        }
      ],
      "stateMutability": "view",
      "type": "function"
    },
    {
      "inputs": [],
      "name": "isActive",
      "outputs": [
        {
          "internalType": "bool",
          "name": "",
          "type": "bool"
        }
      ],
      "stateMutability": "view",
      "type": "function"
    },
    {
      "inputs": [],
      "name": "isLocked",
      "outputs": [
        {
          "internalType": "bool",
          "name": "",
          "type": "bool"
        }
      ],
      "stateMutability": "view",
      "type": "function"
    },
    {
      "inputs": [],
      "name": "isSignedByLandlord",
      "outputs": [
        {
          "internalType": "bool",
          "name": "",
          "type": "bool"
        }
      ],
      "stateMutability": "view",
      "type": "function"
    },
    {
      "inputs": [],
      "name": "isSignedByTenant",
      "outputs": [
        {
          "internalType": "bool",
          "name": "",
          "type": "bool"
        }
      ],
      "stateMutability": "view",
      "type": "function"
    },
    {
      "inputs": [],
      "name": "landlord",
      "outputs": [
        {
          "internalType": "address",
          "name": "",
          "type": "address"
        }
      ],
      "stateMutability": "view",
      "type": "function"
    },
    {
      "inputs": [],
      "name": "lockContract",
      "outputs": [],
      "stateMutability": "nonpayable",
      "type": "function"
    },
    {
      "inputs": [],
      "name": "payRent",
      "outputs": [],
      "stateMutability": "payable",
      "type": "function"
    },
    {
      "inputs": [
        {
          "internalType": "uint256",
          "name": "",
          "type": "uint256"
        }
      ],
      "name": "payments",
      "outputs": [
        {
          "internalType": "uint256",
          "name": "amount",
          "type": "uint256"
        },
        {
          "internalType": "uint256",
          "name": "timestamp",
          "type": "uint256"
        }
      ],
      "stateMutability": "view",
      "type": "function"
    },
    {
      "inputs": [],
      "name": "rentAmount",
      "outputs": [
        {
          "internalType": "uint256",
          "name": "",
          "type": "uint256"
        }
      ],
      "stateMutability": "view",
      "type": "function"
    },
    {
      "inputs": [],
      "name": "signContract",
      "outputs": [],
      "stateMutability": "nonpayable",
      "type": "function"
    },
    {
      "inputs": [],
      "name": "startDate",
      "outputs": [
        {
          "internalType": "uint256",
          "name": "",
          "type": "uint256"
        }
      ],
      "stateMutability": "view",
      "type": "function"
    },
    {
      "inputs": [],
      "name": "tenant",
      "outputs": [
        {
          "internalType": "address",
          "name": "",
          "type": "address"
        }
      ],
      "stateMutability": "view",
      "type": "function"
    },
    {
      "inputs": [],
      "name": "terminateByTenant",
      "outputs": [],
      "stateMutability": "payable",
      "type": "function"
    },
    {
      "inputs": [
        {
          "internalType": "uint256",
          "name": "_newRent",
          "type": "uint256"
        }
      ],
      "name": "updateRent",
      "outputs": [],
      "stateMutability": "nonpayable",
      "type": "function"
    }
  ],
  "bytecode": "0x608060405234801561001057600080fd5b5060405161108238038061108283398101604081905261002f916100fd565b60008054336001600160a01b031991821617909155600180549091166001600160a01b03851617905560028290554260035561006e8162015180610156565b6100789042610173565b60048190556005805464ffff00000019166301000000179055600054600154600254600354604080516001600160a01b03958616815294909316602085015291830152606082015260808101919091527ff7140fc59a3419c7ddb1d0f8dadd2536d111632dc26793137700c8513aa54f609060a00160405180910390a1505050610186565b60008060006060848603121561011257600080fd5b83516001600160a01b038116811461012957600080fd5b602085015160409095015190969495509392505050565b634e487b7160e01b600052601160045260246000fd5b808202811582820484141761016d5761016d610140565b92915050565b8082018082111561016d5761016d610140565b610eed806101956000396000f3fe6080604052600436106101145760003560e01c8063a709c4fe116100a0578063c6ee20d211610064578063c6ee20d214610308578063d56bd14214610337578063dc1997ea14610359578063eb9220ab14610379578063f8ef1e131461039957600080fd5b8063a709c4fe14610295578063aa7f1bdc1461029d578063adf07791146102a5578063b8b4f1a0146102dd578063c24a0f8b146102f257600080fd5b8063544bfc12116100e7578063544bfc12146101a9578063753868e3146101c35780637cc1f867146101d857806387d8178914610240578063a4e2d6341461027557600080fd5b80630b97bc861461011957806322f3e2d414610142578063236347da146101735780632b68bb2d14610192575b600080fd5b34801561012557600080fd5b5061012f60035481565b6040519081526020015b60405180910390f35b34801561014e57600080fd5b50600554610163906301000000900460ff1681565b6040519015158152602001610139565b34801561017f57600080fd5b5060055461016390610100900460ff1681565b34801561019e57600080fd5b506101a76103af565b005b3480156101b557600080fd5b506005546101639060ff1681565b3480156101cf57600080fd5b506101a76104b8565b3480156101e457600080fd5b50600054600154600254600354600454600554604051610139966001600160a01b0390811696169493929160ff808216926101008304821692620100008104831692630100000082048116926401000000009092041690610d7d565b34801561024c57600080fd5b5061026061025b366004610de9565b6105d4565b60408051928352602083019190915201610139565b34801561028157600080fd5b506005546101639062010000900460ff1681565b6101a7610602565b6101a7610823565b3480156102b157600080fd5b506001546102c5906001600160a01b031681565b6040516001600160a01b039091168152602001610139565b3480156102e957600080fd5b506101a7610a15565b3480156102fe57600080fd5b5061012f60045481565b34801561031457600080fd5b5060055461032a90640100000000900460ff1681565b6040516101399190610e02565b34801561034357600080fd5b5061034c610b99565b6040516101399190610e16565b34801561036557600080fd5b506000546102c5906001600160a01b031681565b34801561038557600080fd5b506101a7610394366004610de9565b610c0c565b3480156103a557600080fd5b5061012f60025481565b6000546001600160a01b03163314806103d257506001546001600160a01b031633145b6104145760405162461bcd60e51b815260206004820152600e60248201526d139bdd08185d5d1a1bdc9a5e995960921b60448201526064015b60405180910390fd5b60055462010000900460ff161561046d5760405162461bcd60e51b815260206004820152601860248201527f43616e6e6f742063616e63656c206166746572206c6f636b0000000000000000604482015260640161040b565b6005805464ffff00000019166403000000001790556040513381527f398bd6b21ae4164ec322fb0eb8c2eb6277f36fd41903fbbed594dfe125591281906020015b60405180910390a1565b6000546001600160a01b031633146104e35760405163ea8e4eb560e01b815260040160405180910390fd5b6104eb610cf4565b6005546301000000900460ff166105145760405162461bcd60e51b815260040161040b90610e65565b60055462010000900460ff161561053e5760405163baf3f0f760e01b815260040160405180910390fd5b60055460ff1680156105575750600554610100900460ff165b6105945760405162461bcd60e51b815260206004820152600e60248201526d2137ba341036bab9ba1039b4b3b760911b604482015260640161040b565b6005805464ff00ff000019166402000100001790556040517f0f2e5b6c72c6a4491efd919a9f9a409f324ef0708c11ee57d410c2cb06c0992b90600090a1565b600681815481106105e457600080fd5b60009182526020909120600290910201805460019091015490915082565b6001546001600160a01b0316331461062d5760405163ea8e4eb560e01b815260040160405180910390fd5b610635610cf4565b6005546301000000900460ff1661065e5760405162461bcd60e51b815260040161040b90610e65565b6004544211156106a35760405162461bcd60e51b815260206004820152601060248201526f10dbdb9d1c9858dd08195e1c1a5c995960821b604482015260640161040b565b60055462010000900460ff166106f15760405162461bcd60e51b815260206004820152601360248201527210dbdb9d1c9858dd081b9bdd081b1bd8dad959606a1b604482015260640161040b565b60025434146107355760405162461bcd60e51b815260206004820152601060248201526f125b98dbdc9c9958dd08185b5bdd5b9d60821b604482015260640161040b565b60408051808201825234808252426020830190815260068054600181018255600091825293517ff652222313e28459528d920b65115c16c04f3efc82aaedc97be59f3f377c0d3f60029095029485015590517ff652222313e28459528d920b65115c16c04f3efc82aaedc97be59f3f377c0d4090930192909255815492516001600160a01b03909316926108fc82150292818181858888f193505050501580156107e3573d6000803e3d6000fd5b506040805133815234602082015242918101919091527f33d9ffd7947b17c37c9905165c01183282058f1cb2252c9be395887d078572ad906060016104ae565b6001546001600160a01b0316331461084e5760405163ea8e4eb560e01b815260040160405180910390fd5b610856610cf4565b6005546301000000900460ff1661087f5760405162461bcd60e51b815260040161040b90610e65565b60055462010000900460ff166108cd5760405162461bcd60e51b815260206004820152601360248201527210dbdb9d1c9858dd081b9bdd081b1bd8dad959606a1b604482015260640161040b565b600454421061092c5760405162461bcd60e51b815260206004820152602560248201527f557365206e6f726d616c207465726d696e6174696f6e20616674657220656e64604482015264206461746560d81b606482015260840161040b565b6000600254600261093d9190610e92565b905080341461098e5760405162461bcd60e51b815260206004820152601860248201527f5465726d696e6174696f6e206665652072657175697265640000000000000000604482015260640161040b565b600080546040516001600160a01b03909116913480156108fc02929091818181858888f193505050501580156109c8573d6000803e3d6000fd5b506005805464ffffff000019166404000000001790556040513381527f98cd97fc1a1cc958cbd729b1bb531d4f3ea4925470bf23ea9af386640cbd07be906020015b60405180910390a150565b6000546001600160a01b03163314801590610a3b57506001546001600160a01b03163314155b15610a595760405163ea8e4eb560e01b815260040160405180910390fd5b610a61610cf4565b6005546301000000900460ff16610a8a5760405162461bcd60e51b815260040161040b90610e65565b60055462010000900460ff1615610ab45760405163baf3f0f760e01b815260040160405180910390fd5b6000546001600160a01b03163303610afc5760055460ff1615610aea5760405163585eb56560e11b815260040160405180910390fd5b6005805460ff19166001179055610b35565b600554610100900460ff1615610b255760405163585eb56560e11b815260040160405180910390fd5b6005805461ff0019166101001790555b60055460ff168015610b4e5750600554610100900460ff165b15610b69576005805464ff0000000019166401000000001790555b6040513381527f568aebae0f7dc6c96727fb4cdfdf7add45fec43fffd69b3fa71ea0898a27f8cc906020016104ae565b60606006805480602002602001604051908101604052809291908181526020016000905b82821015610c0357838290600052602060002090600202016040518060400160405290816000820154815260200160018201548152505081526020019060010190610bbd565b50505050905090565b6000546001600160a01b03163314610c665760405162461bcd60e51b815260206004820152601860248201527f4f6e6c79206c616e646c6f72642063616e207570646174650000000000000000604482015260640161040b565b60055462010000900460ff1615610cbf5760405162461bcd60e51b815260206004820152601860248201527f43616e6e6f7420757064617465206166746572206c6f636b0000000000000000604482015260640161040b565b60028190556040518181527ff5bf7272b02857f4b650b21c18a4d098cb8dafe9abfc9a2c6ace6b54921263e390602001610a0a565b6005546301000000900460ff168015610d0e575060045442115b15610d59576005805464ffffff00001916640400000000179055604051600081527f98cd97fc1a1cc958cbd729b1bb531d4f3ea4925470bf23ea9af386640cbd07be906020016104ae565b565b60058110610d7957634e487b7160e01b600052602160045260246000fd5b9052565b6001600160a01b038b811682528a16602082015260408101899052606081018890526080810187905285151560a082015284151560c082015283151560e08201528215156101008201526101408101610dda610120830184610d5b565b9b9a5050505050505050505050565b600060208284031215610dfb57600080fd5b5035919050565b60208101610e108284610d5b565b92915050565b602080825282518282018190526000918401906040840190835b81811015610e5a578351805184526020908101518185015290930192604090920191600101610e30565b509095945050505050565b602080825260139082015272436f6e7472616374206e6f742061637469766560681b604082015260600190565b8082028115828204841417610e1057634e487b7160e01b600052601160045260246000fdfea26469706673582212209d160a02ae9eab3ae40c742a0633bf9f9b110950cdccba785b3cf4cc547458bc64736f6c634300081c0033",
  "linkReferences": {},
  "deployedLinkReferences": {}
}