{
  "_format": "hh-sol-artifact-1",
  "contractName": "RentalContract",
  "sourceName": "contracts/RentalContract.sol",
  "abi": [
    {
      "inputs": [
        {
          "internalType": "address",
          "name": "_tenant",
          "type": "address"
        },
        {
          "internalType": "uint256",
          "name": "_rentAmount",
          "type": "uint256"
        },
        {
          "internalType": "uint256",
          "name": "_durationDays",
          "type": "uint256"
        }
      ],
      "stateMutability": "nonpayable",
      "type": "constructor"
    },
    {
      "anonymous": false,
      "inputs": [
        {
          "indexed": false,
          "internalType": "address",
          "name": "by",
          "type": "address"
        }
      ],
      "name": "Cancelled",
      "type": "event"
    },
    {
      "anonymous": false,
      "inputs": [
        {
          "indexed": false,
          "internalType": "address",
          "name": "landlord",
          "type": "address"
        },
        {
          "indexed": false,
          "internalType": "address",
          "name": "tenant",
          "type": "address"
        },
        {
          "indexed": false,
          "internalType": "uint256",
          "name": "rentAmount",
          "type": "uint256"
        },
        {
          "indexed": false,
          "internalType": "uint256",
          "name": "startDate",
          "type": "uint256"
        },
        {
          "indexed": false,
          "internalType": "uint256",
          "name": "endDate",
          "type": "uint256"
        }
      ],
      "name": "ContractCreated",
      "type": "event"
    },
    {
      "anonymous": false,
      "inputs": [],
      "name": "Locked",
      "type": "event"
    },
    {
      "anonymous": false,
      "inputs": [
        {
          "indexed": false,
          "internalType": "address",
          "name": "from",
          "type": "address"
        },
        {
          "indexed": false,
          "internalType": "uint256",
          "name": "amount",
          "type": "uint256"
        },
        {
          "indexed": false,
          "internalType": "uint256",
          "name": "timestamp",
          "type": "uint256"
        }
      ],
      "name": "RentPaid",
      "type": "event"
    },
    {
      "anonymous": false,
      "inputs": [
        {
          "indexed": false,
          "internalType": "uint256",
          "name": "newRent",
          "type": "uint256"
        }
      ],
      "name": "RentUpdated",
      "type": "event"
    },
    {
      "anonymous": false,
      "inputs": [
        {
          "indexed": false,
          "internalType": "address",
          "name": "signer",
          "type": "address"
        }
      ],
      "name": "Signed",
      "type": "event"
    },
    {
      "anonymous": false,
      "inputs": [
        {
          "indexed": false,
          "internalType": "address",
          "name": "by",
          "type": "address"
        }
      ],
      "name": "Terminated",
      "type": "event"
    },
    {
      "inputs": [],
      "name": "cancelContract",
      "outputs": [],
      "stateMutability": "nonpayable",
      "type": "function"
    },
    {
      "inputs": [],
      "name": "contractStatus",
      "outputs": [
        {
          "internalType": "enum RentalContract.Status",
          "name": "",
          "type": "uint8"
        }
      ],
      "stateMutability": "view",
      "type": "function"
    },
    {
      "inputs": [],
      "name": "endDate",
      "outputs": [
        {
          "internalType": "uint256",
          "name": "",
          "type": "uint256"
        }
      ],
      "stateMutability": "view",
      "type": "function"
    },
    {
      "inputs": [],
      "name": "getContractInfo",
      "outputs": [
        {
          "internalType": "address",
          "name": "",
          "type": "address"
        },
        {
          "internalType": "address",
          "name": "",
          "type": "address"
        },
        {
          "internalType": "uint256",
          "name": "",
          "type": "uint256"
        },
        {
          "internalType": "uint256",
          "name": "",
          "type": "uint256"
        },
        {
          "internalType": "uint256",
          "name": "",
          "type": "uint256"
        },
        {
          "internalType": "bool",
          "name": "",
          "type": "bool"
        },
        {
          "internalType": "bool",
          "name": "",
          "type": "bool"
        },
        {
          "internalType": "bool",
          "name": "",
          "type": "bool"
        },
        {
          "internalType": "bool",
          "name": "",
          "type": "bool"
        },
        {
          "internalType": "enum RentalContract.Status",
          "name": "",
          "type": "uint8"
        }
      ],
      "stateMutability": "view",
      "type": "function"
    },
    {
      "inputs": [],
      "name": "getPayments",
      "outputs": [
        {
          "components": [
            {
              "internalType": "uint256",
              "name": "amount",
              "type": "uint256"
            },
            {
              "internalType": "uint256",
              "name": "timestamp",
              "type": "uint256"
            }
          ],
          "internalType": "struct RentalContract.Payment[]",
          "name": "",
          "type": "tuple[]"
        }
      ],
      "stateMutability": "view",
      "type": "function"
    },
    {
      "inputs": [],
      "name": "isActive",
      "outputs": [
        {
          "internalType": "bool",
          "name": "",
          "type": "bool"
        }
      ],
      "stateMutability": "view",
      "type": "function"
    },
    {
      "inputs": [],
      "name": "isLocked",
      "outputs": [
        {
          "internalType": "bool",
          "name": "",
          "type": "bool"
        }
      ],
      "stateMutability": "view",
      "type": "function"
    },
    {
      "inputs": [],
      "name": "isSignedByLandlord",
      "outputs": [
        {
          "internalType": "bool",
          "name": "",
          "type": "bool"
        }
      ],
      "stateMutability": "view",
      "type": "function"
    },
    {
      "inputs": [],
      "name": "isSignedByTenant",
      "outputs": [
        {
          "internalType": "bool",
          "name": "",
          "type": "bool"
        }
      ],
      "stateMutability": "view",
      "type": "function"
    },
    {
      "inputs": [],
      "name": "landlord",
      "outputs": [
        {
          "internalType": "address",
          "name": "",
          "type": "address"
        }
      ],
      "stateMutability": "view",
      "type": "function"
    },
    {
      "inputs": [],
      "name": "lockContract",
      "outputs": [],
      "stateMutability": "nonpayable",
      "type": "function"
    },
    {
      "inputs": [],
      "name": "payRent",
      "outputs": [],
      "stateMutability": "payable",
      "type": "function"
    },
    {
      "inputs": [
        {
          "internalType": "uint256",
          "name": "",
          "type": "uint256"
        }
      ],
      "name": "payments",
      "outputs": [
        {
          "internalType": "uint256",
          "name": "amount",
          "type": "uint256"
        },
        {
          "internalType": "uint256",
          "name": "timestamp",
          "type": "uint256"
        }
      ],
      "stateMutability": "view",
      "type": "function"
    },
    {
      "inputs": [],
      "name": "rentAmount",
      "outputs": [
        {
          "internalType": "uint256",
          "name": "",
          "type": "uint256"
        }
      ],
      "stateMutability": "view",
      "type": "function"
    },
    {
      "inputs": [],
      "name": "signContract",
      "outputs": [],
      "stateMutability": "nonpayable",
      "type": "function"
    },
    {
      "inputs": [],
      "name": "startDate",
      "outputs": [
        {
          "internalType": "uint256",
          "name": "",
          "type": "uint256"
        }
      ],
      "stateMutability": "view",
      "type": "function"
    },
    {
      "inputs": [],
      "name": "tenant",
      "outputs": [
        {
          "internalType": "address",
          "name": "",
          "type": "address"
        }
      ],
      "stateMutability": "view",
      "type": "function"
    },
    {
      "inputs": [],
      "name": "terminateByTenant",
      "outputs": [],
      "stateMutability": "nonpayable",
      "type": "function"
    },
    {
      "inputs": [
        {
          "internalType": "uint256",
          "name": "_newRent",
          "type": "uint256"
        }
      ],
      "name": "updateRent",
      "outputs": [],
      "stateMutability": "nonpayable",
      "type": "function"
    }
  ],
  "bytecode": "0x608060405234801561001057600080fd5b50604051610df9380380610df983398101604081905261002f916100fd565b60008054336001600160a01b031991821617909155600180549091166001600160a01b03851617905560028290554260035561006e8162015180610156565b6100789042610173565b60048190556005805464ffff00000019166301000000179055600054600154600254600354604080516001600160a01b03958616815294909316602085015291830152606082015260808101919091527ff7140fc59a3419c7ddb1d0f8dadd2536d111632dc26793137700c8513aa54f609060a00160405180910390a1505050610186565b60008060006060848603121561011257600080fd5b83516001600160a01b038116811461012957600080fd5b602085015160409095015190969495509392505050565b634e487b7160e01b600052601160045260246000fd5b808202811582820484141761016d5761016d610140565b92915050565b8082018082111561016d5761016d610140565b610c64806101956000396000f3fe6080604052600436106101145760003560e01c8063a709c4fe116100a0578063c6ee20d211610064578063c6ee20d214610315578063d56bd14214610344578063dc1997ea14610366578063eb9220ab14610386578063f8ef1e13146103a657600080fd5b8063a709c4fe14610295578063aa7f1bdc1461029d578063adf07791146102b2578063b8b4f1a0146102ea578063c24a0f8b146102ff57600080fd5b8063544bfc12116100e7578063544bfc12146101a9578063753868e3146101c35780637cc1f867146101d857806387d8178914610240578063a4e2d6341461027557600080fd5b80630b97bc861461011957806322f3e2d414610142578063236347da146101735780632b68bb2d14610192575b600080fd5b34801561012557600080fd5b5061012f60035481565b6040519081526020015b60405180910390f35b34801561014e57600080fd5b50600554610163906301000000900460ff1681565b6040519015158152602001610139565b34801561017f57600080fd5b5060055461016390610100900460ff1681565b34801561019e57600080fd5b506101a76103bc565b005b3480156101b557600080fd5b506005546101639060ff1681565b3480156101cf57600080fd5b506101a76104c5565b3480156101e457600080fd5b50600054600154600254600354600454600554604051610139966001600160a01b0390811696169493929160ff808216926101008304821692620100008104831692630100000082048116926401000000009092041690610b46565b34801561024c57600080fd5b5061026061025b366004610bb2565b6105a5565b60408051928352602083019190915201610139565b34801561028157600080fd5b506005546101639062010000900460ff1681565b6101a76105d3565b3480156102a957600080fd5b506101a76107a0565b3480156102be57600080fd5b506001546102d2906001600160a01b031681565b6040516001600160a01b039091168152602001610139565b3480156102f657600080fd5b506101a761088d565b34801561030b57600080fd5b5061012f60045481565b34801561032157600080fd5b5060055461033790640100000000900460ff1681565b6040516101399190610bcb565b34801561035057600080fd5b506103596109c3565b6040516101399190610bdf565b34801561037257600080fd5b506000546102d2906001600160a01b031681565b34801561039257600080fd5b506101a76103a1366004610bb2565b610a36565b3480156103b257600080fd5b5061012f60025481565b6000546001600160a01b03163314806103df57506001546001600160a01b031633145b6104215760405162461bcd60e51b815260206004820152600e60248201526d139bdd08185d5d1a1bdc9a5e995960921b60448201526064015b60405180910390fd5b60055462010000900460ff161561047a5760405162461bcd60e51b815260206004820152601860248201527f43616e6e6f742063616e63656c206166746572206c6f636b00000000000000006044820152606401610418565b6005805464ffff00000019166403000000001790556040513381527f398bd6b21ae4164ec322fb0eb8c2eb6277f36fd41903fbbed594dfe125591281906020015b60405180910390a1565b60055460ff1680156104de5750600554610100900460ff165b61051b5760405162461bcd60e51b815260206004820152600e60248201526d2137ba341036bab9ba1039b4b3b760911b6044820152606401610418565b60055462010000900460ff16156105655760405162461bcd60e51b815260206004820152600e60248201526d105b1c9958591e481b1bd8dad95960921b6044820152606401610418565b6005805464ff00ff000019166402000100001790556040517f0f2e5b6c72c6a4491efd919a9f9a409f324ef0708c11ee57d410c2cb06c0992b90600090a1565b600681815481106105b557600080fd5b60009182526020909120600290910201805460019091015490915082565b60055462010000900460ff166106215760405162461bcd60e51b815260206004820152601360248201527210dbdb9d1c9858dd081b9bdd081b1bd8dad959606a1b6044820152606401610418565b6001546001600160a01b0316331461066e5760405162461bcd60e51b815260206004820152601060248201526f4f6e6c792074656e616e74207061797360801b6044820152606401610418565b60025434146106b25760405162461bcd60e51b815260206004820152601060248201526f125b98dbdc9c9958dd08185b5bdd5b9d60821b6044820152606401610418565b60408051808201825234808252426020830190815260068054600181018255600091825293517ff652222313e28459528d920b65115c16c04f3efc82aaedc97be59f3f377c0d3f60029095029485015590517ff652222313e28459528d920b65115c16c04f3efc82aaedc97be59f3f377c0d4090930192909255815492516001600160a01b03909316926108fc82150292818181858888f19350505050158015610760573d6000803e3d6000fd5b506040805133815234602082015242918101919091527f33d9ffd7947b17c37c9905165c01183282058f1cb2252c9be395887d078572ad906060016104bb565b6001546001600160a01b031633146107fa5760405162461bcd60e51b815260206004820152601960248201527f4f6e6c792074656e616e742063616e207465726d696e617465000000000000006044820152606401610418565b60055462010000900460ff166108485760405162461bcd60e51b815260206004820152601360248201527210dbdb9d1c9858dd081b9bdd081b1bd8dad959606a1b6044820152606401610418565b6005805464ffffff000019166404000000001790556040513381527f98cd97fc1a1cc958cbd729b1bb531d4f3ea4925470bf23ea9af386640cbd07be906020016104bb565b6000546001600160a01b03163314806108b057506001546001600160a01b031633145b6108ed5760405162461bcd60e51b815260206004820152600e60248201526d139bdd08185d5d1a1bdc9a5e995960921b6044820152606401610418565b6005546301000000900460ff1661093c5760405162461bcd60e51b8152602060048201526013602482015272436f6e7472616374206e6f742061637469766560681b6044820152606401610418565b6000546001600160a01b0316330361095c576005805460ff191660011790555b6001546001600160a01b0316330361097e576005805461ff0019166101001790555b6005805464ff0000000019166401000000001790556040513381527f568aebae0f7dc6c96727fb4cdfdf7add45fec43fffd69b3fa71ea0898a27f8cc906020016104bb565b60606006805480602002602001604051908101604052809291908181526020016000905b82821015610a2d578382906000526020600020906002020160405180604001604052908160008201548152602001600182015481525050815260200190600101906109e7565b50505050905090565b6000546001600160a01b03163314610a905760405162461bcd60e51b815260206004820152601860248201527f4f6e6c79206c616e646c6f72642063616e2075706461746500000000000000006044820152606401610418565b60055462010000900460ff1615610ae95760405162461bcd60e51b815260206004820152601860248201527f43616e6e6f7420757064617465206166746572206c6f636b00000000000000006044820152606401610418565b60028190556040518181527ff5bf7272b02857f4b650b21c18a4d098cb8dafe9abfc9a2c6ace6b54921263e39060200160405180910390a150565b60058110610b4257634e487b7160e01b600052602160045260246000fd5b9052565b6001600160a01b038b811682528a16602082015260408101899052606081018890526080810187905285151560a082015284151560c082015283151560e08201528215156101008201526101408101610ba3610120830184610b24565b9b9a5050505050505050505050565b600060208284031215610bc457600080fd5b5035919050565b60208101610bd98284610b24565b92915050565b602080825282518282018190526000918401906040840190835b81811015610c23578351805184526020908101518185015290930192604090920191600101610bf9565b50909594505050505056fea26469706673582212204ac5075905cc4f9b117296555463b19c2491422d559ac4dc3904056891f4f41e64736f6c634300081c0033",
  "linkReferences": {},
  "deployedLinkReferences": {}
}